{
	"data": {
		"bytecode": {
			"linkReferences": {},
			"object": "60806040526005600055610312806100186000396000f3fe6080604052600436106100555760003560e01c8063303810a61461005a5780634f2be91f146100785780637032c4f21461008f57806380b4ea08146100cc5780638381f58a146100e3578063b262eb7f1461010e575b600080fd5b610062610139565b60405161006f91906101cc565b60405180910390f35b34801561008457600080fd5b5061008d610149565b005b34801561009b57600080fd5b506100b660048036038101906100b19190610218565b610160565b6040516100c391906101cc565b60405180910390f35b3480156100d857600080fd5b506100e1610176565b005b3480156100ef57600080fd5b506100f8610180565b60405161010591906101cc565b60405180910390f35b34801561011a57600080fd5b50610123610186565b60405161013091906101cc565b60405180910390f35b600061014361019c565b47905090565b60016000546101589190610274565b600081905550565b600060018261016f9190610274565b9050919050565b61017e61019c565b565b60005481565b600060016000546101979190610274565b905090565b60016000546101ab91906102a8565b600081905550565b6000819050919050565b6101c6816101b3565b82525050565b60006020820190506101e160008301846101bd565b92915050565b600080fd5b6101f5816101b3565b811461020057600080fd5b50565b600081359050610212816101ec565b92915050565b60006020828403121561022e5761022d6101e7565b5b600061023c84828501610203565b91505092915050565b7f4e487b7100000000000000000000000000000000000000000000000000000000600052601160045260246000fd5b600061027f826101b3565b915061028a836101b3565b92508282019050808211156102a2576102a1610245565b5b92915050565b60006102b3826101b3565b91506102be836101b3565b92508282039050818111156102d6576102d5610245565b5b9291505056fea264697066735822122048bc278aa28e2c132971b9c0c8a002a9711bbb61b3be426174e647438bb212d464736f6c63430008110033",
			"opcodes": "PUSH1 0x80 PUSH1 0x40 MSTORE PUSH1 0x5 PUSH1 0x0 SSTORE PUSH2 0x312 DUP1 PUSH2 0x18 PUSH1 0x0 CODECOPY PUSH1 0x0 RETURN INVALID PUSH1 0x80 PUSH1 0x40 MSTORE PUSH1 0x4 CALLDATASIZE LT PUSH2 0x55 JUMPI PUSH1 0x0 CALLDATALOAD PUSH1 0xE0 SHR DUP1 PUSH4 0x303810A6 EQ PUSH2 0x5A JUMPI DUP1 PUSH4 0x4F2BE91F EQ PUSH2 0x78 JUMPI DUP1 PUSH4 0x7032C4F2 EQ PUSH2 0x8F JUMPI DUP1 PUSH4 0x80B4EA08 EQ PUSH2 0xCC JUMPI DUP1 PUSH4 0x8381F58A EQ PUSH2 0xE3 JUMPI DUP1 PUSH4 0xB262EB7F EQ PUSH2 0x10E JUMPI JUMPDEST PUSH1 0x0 DUP1 REVERT JUMPDEST PUSH2 0x62 PUSH2 0x139 JUMP JUMPDEST PUSH1 0x40 MLOAD PUSH2 0x6F SWAP2 SWAP1 PUSH2 0x1CC JUMP JUMPDEST PUSH1 0x40 MLOAD DUP1 SWAP2 SUB SWAP1 RETURN JUMPDEST CALLVALUE DUP1 ISZERO PUSH2 0x84 JUMPI PUSH1 0x0 DUP1 REVERT JUMPDEST POP PUSH2 0x8D PUSH2 0x149 JUMP JUMPDEST STOP JUMPDEST CALLVALUE DUP1 ISZERO PUSH2 0x9B JUMPI PUSH1 0x0 DUP1 REVERT JUMPDEST POP PUSH2 0xB6 PUSH1 0x4 DUP1 CALLDATASIZE SUB DUP2 ADD SWAP1 PUSH2 0xB1 SWAP2 SWAP1 PUSH2 0x218 JUMP JUMPDEST PUSH2 0x160 JUMP JUMPDEST PUSH1 0x40 MLOAD PUSH2 0xC3 SWAP2 SWAP1 PUSH2 0x1CC JUMP JUMPDEST PUSH1 0x40 MLOAD DUP1 SWAP2 SUB SWAP1 RETURN JUMPDEST CALLVALUE DUP1 ISZERO PUSH2 0xD8 JUMPI PUSH1 0x0 DUP1 REVERT JUMPDEST POP PUSH2 0xE1 PUSH2 0x176 JUMP JUMPDEST STOP JUMPDEST CALLVALUE DUP1 ISZERO PUSH2 0xEF JUMPI PUSH1 0x0 DUP1 REVERT JUMPDEST POP PUSH2 0xF8 PUSH2 0x180 JUMP JUMPDEST PUSH1 0x40 MLOAD PUSH2 0x105 SWAP2 SWAP1 PUSH2 0x1CC JUMP JUMPDEST PUSH1 0x40 MLOAD DUP1 SWAP2 SUB SWAP1 RETURN JUMPDEST CALLVALUE DUP1 ISZERO PUSH2 0x11A JUMPI PUSH1 0x0 DUP1 REVERT JUMPDEST POP PUSH2 0x123 PUSH2 0x186 JUMP JUMPDEST PUSH1 0x40 MLOAD PUSH2 0x130 SWAP2 SWAP1 PUSH2 0x1CC JUMP JUMPDEST PUSH1 0x40 MLOAD DUP1 SWAP2 SUB SWAP1 RETURN JUMPDEST PUSH1 0x0 PUSH2 0x143 PUSH2 0x19C JUMP JUMPDEST SELFBALANCE SWAP1 POP SWAP1 JUMP JUMPDEST PUSH1 0x1 PUSH1 0x0 SLOAD PUSH2 0x158 SWAP2 SWAP1 PUSH2 0x274 JUMP JUMPDEST PUSH1 0x0 DUP2 SWAP1 SSTORE POP JUMP JUMPDEST PUSH1 0x0 PUSH1 0x1 DUP3 PUSH2 0x16F SWAP2 SWAP1 PUSH2 0x274 JUMP JUMPDEST SWAP1 POP SWAP2 SWAP1 POP JUMP JUMPDEST PUSH2 0x17E PUSH2 0x19C JUMP JUMPDEST JUMP JUMPDEST PUSH1 0x0 SLOAD DUP2 JUMP JUMPDEST PUSH1 0x0 PUSH1 0x1 PUSH1 0x0 SLOAD PUSH2 0x197 SWAP2 SWAP1 PUSH2 0x274 JUMP JUMPDEST SWAP1 POP SWAP1 JUMP JUMPDEST PUSH1 0x1 PUSH1 0x0 SLOAD PUSH2 0x1AB SWAP2 SWAP1 PUSH2 0x2A8 JUMP JUMPDEST PUSH1 0x0 DUP2 SWAP1 SSTORE POP JUMP JUMPDEST PUSH1 0x0 DUP2 SWAP1 POP SWAP2 SWAP1 POP JUMP JUMPDEST PUSH2 0x1C6 DUP2 PUSH2 0x1B3 JUMP JUMPDEST DUP3 MSTORE POP POP JUMP JUMPDEST PUSH1 0x0 PUSH1 0x20 DUP3 ADD SWAP1 POP PUSH2 0x1E1 PUSH1 0x0 DUP4 ADD DUP5 PUSH2 0x1BD JUMP JUMPDEST SWAP3 SWAP2 POP POP JUMP JUMPDEST PUSH1 0x0 DUP1 REVERT JUMPDEST PUSH2 0x1F5 DUP2 PUSH2 0x1B3 JUMP JUMPDEST DUP2 EQ PUSH2 0x200 JUMPI PUSH1 0x0 DUP1 REVERT JUMPDEST POP JUMP JUMPDEST PUSH1 0x0 DUP2 CALLDATALOAD SWAP1 POP PUSH2 0x212 DUP2 PUSH2 0x1EC JUMP JUMPDEST SWAP3 SWAP2 POP POP JUMP JUMPDEST PUSH1 0x0 PUSH1 0x20 DUP3 DUP5 SUB SLT ISZERO PUSH2 0x22E JUMPI PUSH2 0x22D PUSH2 0x1E7 JUMP JUMPDEST JUMPDEST PUSH1 0x0 PUSH2 0x23C DUP5 DUP3 DUP6 ADD PUSH2 0x203 JUMP JUMPDEST SWAP2 POP POP SWAP3 SWAP2 POP POP JUMP JUMPDEST PUSH32 0x4E487B7100000000000000000000000000000000000000000000000000000000 PUSH1 0x0 MSTORE PUSH1 0x11 PUSH1 0x4 MSTORE PUSH1 0x24 PUSH1 0x0 REVERT JUMPDEST PUSH1 0x0 PUSH2 0x27F DUP3 PUSH2 0x1B3 JUMP JUMPDEST SWAP2 POP PUSH2 0x28A DUP4 PUSH2 0x1B3 JUMP JUMPDEST SWAP3 POP DUP3 DUP3 ADD SWAP1 POP DUP1 DUP3 GT ISZERO PUSH2 0x2A2 JUMPI PUSH2 0x2A1 PUSH2 0x245 JUMP JUMPDEST JUMPDEST SWAP3 SWAP2 POP POP JUMP JUMPDEST PUSH1 0x0 PUSH2 0x2B3 DUP3 PUSH2 0x1B3 JUMP JUMPDEST SWAP2 POP PUSH2 0x2BE DUP4 PUSH2 0x1B3 JUMP JUMPDEST SWAP3 POP DUP3 DUP3 SUB SWAP1 POP DUP2 DUP2 GT ISZERO PUSH2 0x2D6 JUMPI PUSH2 0x2D5 PUSH2 0x245 JUMP JUMPDEST JUMPDEST SWAP3 SWAP2 POP POP JUMP INVALID LOG2 PUSH5 0x6970667358 0x22 SLT KECCAK256 BASEFEE 0xBC 0x27 DUP11 LOG2 DUP15 0x2C SGT 0x29 PUSH18 0xB9C0C8A002A9711BBB61B3BE426174E64743 DUP12 0xB2 SLT 0xD4 PUSH5 0x736F6C6343 STOP ADDMOD GT STOP CALLER "
		},
		"gasEstimates": {
			"creation": {
				"codeDepositCost": "157200",
				"executionCost": "22284",
				"totalCost": "179484"
			},
			"external": {
				"add()": "infinite",
				"addPure(uint256)": "infinite",
				"addView()": "infinite",
				"minusCall()": "infinite",
				"minusPayable()": "infinite",
				"number()": "2495"
			},
			"internal": {
				"minus()": "infinite"
			}
		},
		"methodIdentifiers": {
			"add()": "4f2be91f",
			"addPure(uint256)": "7032c4f2",
			"addView()": "b262eb7f",
			"minusCall()": "80b4ea08",
			"minusPayable()": "303810a6",
			"number()": "8381f58a"
		}
	},
	"abi": [
		{
			"inputs": [],
			"stateMutability": "payable",
			"type": "constructor"
		},
		{
			"inputs": [],
			"name": "add",
			"outputs": [],
			"stateMutability": "nonpayable",
			"type": "function"
		},
		{
			"inputs": [
				{
					"internalType": "uint256",
					"name": "_number",
					"type": "uint256"
				}
			],
			"name": "addPure",
			"outputs": [
				{
					"internalType": "uint256",
					"name": "new_number",
					"type": "uint256"
				}
			],
			"stateMutability": "pure",
			"type": "function"
		},
		{
			"inputs": [],
			"name": "addView",
			"outputs": [
				{
					"internalType": "uint256",
					"name": "new_number",
					"type": "uint256"
				}
			],
			"stateMutability": "view",
			"type": "function"
		},
		{
			"inputs": [],
			"name": "minusCall",
			"outputs": [],
			"stateMutability": "nonpayable",
			"type": "function"
		},
		{
			"inputs": [],
			"name": "minusPayable",
			"outputs": [
				{
					"internalType": "uint256",
					"name": "balance",
					"type": "uint256"
				}
			],
			"stateMutability": "payable",
			"type": "function"
		},
		{
			"inputs": [],
			"name": "number",
			"outputs": [
				{
					"internalType": "uint256",
					"name": "",
					"type": "uint256"
				}
			],
			"stateMutability": "view",
			"type": "function"
		}
	]
}