{
	"data": {
		"bytecode": {
			"linkReferences": {},
			"object": "608060405234801561001057600080fd5b50610306806100206000396000f3fe608060405234801561001057600080fd5b506004361061004c5760003560e01c80633dece511146100515780636f590330146100715780638552dc081461007b578063e61e40081461009b575b600080fd5b6100596100bb565b60405161006893929190610299565b60405180910390f35b6100796100f3565b005b61008361012a565b60405161009293929190610299565b60405180910390f35b6100a3610161565b6040516100b293929190610299565b60405180910390f35b6000806100c6610198565b60029250600091506040518060600160405280600381526020016002815260200160018152509050909192565b6000806000610100610198565b6101086100bb565b80935081955082965050505061011c6100bb565b909150508092505050505050565b600080610135610198565b600180604051806060016040528060018152602001600281526020016005815250925092509250909192565b60008061016c610198565b600180604051806060016040528060018152602001600281526020016005815250925092509250909192565b6040518060600160405280600390602082028036833780820191505090505090565b6000819050919050565b6101cd816101ba565b82525050565b60008115159050919050565b6101e8816101d3565b82525050565b600060039050919050565b600081905092915050565b6000819050919050565b610217816101ba565b82525050565b6000610229838361020e565b60208301905092915050565b6000602082019050919050565b61024b816101ee565b61025581846101f9565b925061026082610204565b8060005b83811015610291578151610278878261021d565b965061028383610235565b925050600181019050610264565b505050505050565b600060a0820190506102ae60008301866101c4565b6102bb60208301856101df565b6102c86040830184610242565b94935050505056fea2646970667358221220e3683849159f4f9f2dc86304b3d3f1e7d18c4377dd2d118f516dde919a4a413064736f6c63430008110033",
			"opcodes": "PUSH1 0x80 PUSH1 0x40 MSTORE CALLVALUE DUP1 ISZERO PUSH2 0x10 JUMPI PUSH1 0x0 DUP1 REVERT JUMPDEST POP PUSH2 0x306 DUP1 PUSH2 0x20 PUSH1 0x0 CODECOPY PUSH1 0x0 RETURN INVALID PUSH1 0x80 PUSH1 0x40 MSTORE CALLVALUE DUP1 ISZERO PUSH2 0x10 JUMPI PUSH1 0x0 DUP1 REVERT JUMPDEST POP PUSH1 0x4 CALLDATASIZE LT PUSH2 0x4C JUMPI PUSH1 0x0 CALLDATALOAD PUSH1 0xE0 SHR DUP1 PUSH4 0x3DECE511 EQ PUSH2 0x51 JUMPI DUP1 PUSH4 0x6F590330 EQ PUSH2 0x71 JUMPI DUP1 PUSH4 0x8552DC08 EQ PUSH2 0x7B JUMPI DUP1 PUSH4 0xE61E4008 EQ PUSH2 0x9B JUMPI JUMPDEST PUSH1 0x0 DUP1 REVERT JUMPDEST PUSH2 0x59 PUSH2 0xBB JUMP JUMPDEST PUSH1 0x40 MLOAD PUSH2 0x68 SWAP4 SWAP3 SWAP2 SWAP1 PUSH2 0x299 JUMP JUMPDEST PUSH1 0x40 MLOAD DUP1 SWAP2 SUB SWAP1 RETURN JUMPDEST PUSH2 0x79 PUSH2 0xF3 JUMP JUMPDEST STOP JUMPDEST PUSH2 0x83 PUSH2 0x12A JUMP JUMPDEST PUSH1 0x40 MLOAD PUSH2 0x92 SWAP4 SWAP3 SWAP2 SWAP1 PUSH2 0x299 JUMP JUMPDEST PUSH1 0x40 MLOAD DUP1 SWAP2 SUB SWAP1 RETURN JUMPDEST PUSH2 0xA3 PUSH2 0x161 JUMP JUMPDEST PUSH1 0x40 MLOAD PUSH2 0xB2 SWAP4 SWAP3 SWAP2 SWAP1 PUSH2 0x299 JUMP JUMPDEST PUSH1 0x40 MLOAD DUP1 SWAP2 SUB SWAP1 RETURN JUMPDEST PUSH1 0x0 DUP1 PUSH2 0xC6 PUSH2 0x198 JUMP JUMPDEST PUSH1 0x2 SWAP3 POP PUSH1 0x0 SWAP2 POP PUSH1 0x40 MLOAD DUP1 PUSH1 0x60 ADD PUSH1 0x40 MSTORE DUP1 PUSH1 0x3 DUP2 MSTORE PUSH1 0x20 ADD PUSH1 0x2 DUP2 MSTORE PUSH1 0x20 ADD PUSH1 0x1 DUP2 MSTORE POP SWAP1 POP SWAP1 SWAP2 SWAP3 JUMP JUMPDEST PUSH1 0x0 DUP1 PUSH1 0x0 PUSH2 0x100 PUSH2 0x198 JUMP JUMPDEST PUSH2 0x108 PUSH2 0xBB JUMP JUMPDEST DUP1 SWAP4 POP DUP2 SWAP6 POP DUP3 SWAP7 POP POP POP POP PUSH2 0x11C PUSH2 0xBB JUMP JUMPDEST SWAP1 SWAP2 POP POP DUP1 SWAP3 POP POP POP POP POP POP JUMP JUMPDEST PUSH1 0x0 DUP1 PUSH2 0x135 PUSH2 0x198 JUMP JUMPDEST PUSH1 0x1 DUP1 PUSH1 0x40 MLOAD DUP1 PUSH1 0x60 ADD PUSH1 0x40 MSTORE DUP1 PUSH1 0x1 DUP2 MSTORE PUSH1 0x20 ADD PUSH1 0x2 DUP2 MSTORE PUSH1 0x20 ADD PUSH1 0x5 DUP2 MSTORE POP SWAP3 POP SWAP3 POP SWAP3 POP SWAP1 SWAP2 SWAP3 JUMP JUMPDEST PUSH1 0x0 DUP1 PUSH2 0x16C PUSH2 0x198 JUMP JUMPDEST PUSH1 0x1 DUP1 PUSH1 0x40 MLOAD DUP1 PUSH1 0x60 ADD PUSH1 0x40 MSTORE DUP1 PUSH1 0x1 DUP2 MSTORE PUSH1 0x20 ADD PUSH1 0x2 DUP2 MSTORE PUSH1 0x20 ADD PUSH1 0x5 DUP2 MSTORE POP SWAP3 POP SWAP3 POP SWAP3 POP SWAP1 SWAP2 SWAP3 JUMP JUMPDEST PUSH1 0x40 MLOAD DUP1 PUSH1 0x60 ADD PUSH1 0x40 MSTORE DUP1 PUSH1 0x3 SWAP1 PUSH1 0x20 DUP3 MUL DUP1 CALLDATASIZE DUP4 CALLDATACOPY DUP1 DUP3 ADD SWAP2 POP POP SWAP1 POP POP SWAP1 JUMP JUMPDEST PUSH1 0x0 DUP2 SWAP1 POP SWAP2 SWAP1 POP JUMP JUMPDEST PUSH2 0x1CD DUP2 PUSH2 0x1BA JUMP JUMPDEST DUP3 MSTORE POP POP JUMP JUMPDEST PUSH1 0x0 DUP2 ISZERO ISZERO SWAP1 POP SWAP2 SWAP1 POP JUMP JUMPDEST PUSH2 0x1E8 DUP2 PUSH2 0x1D3 JUMP JUMPDEST DUP3 MSTORE POP POP JUMP JUMPDEST PUSH1 0x0 PUSH1 0x3 SWAP1 POP SWAP2 SWAP1 POP JUMP JUMPDEST PUSH1 0x0 DUP2 SWAP1 POP SWAP3 SWAP2 POP POP JUMP JUMPDEST PUSH1 0x0 DUP2 SWAP1 POP SWAP2 SWAP1 POP JUMP JUMPDEST PUSH2 0x217 DUP2 PUSH2 0x1BA JUMP JUMPDEST DUP3 MSTORE POP POP JUMP JUMPDEST PUSH1 0x0 PUSH2 0x229 DUP4 DUP4 PUSH2 0x20E JUMP JUMPDEST PUSH1 0x20 DUP4 ADD SWAP1 POP SWAP3 SWAP2 POP POP JUMP JUMPDEST PUSH1 0x0 PUSH1 0x20 DUP3 ADD SWAP1 POP SWAP2 SWAP1 POP JUMP JUMPDEST PUSH2 0x24B DUP2 PUSH2 0x1EE JUMP JUMPDEST PUSH2 0x255 DUP2 DUP5 PUSH2 0x1F9 JUMP JUMPDEST SWAP3 POP PUSH2 0x260 DUP3 PUSH2 0x204 JUMP JUMPDEST DUP1 PUSH1 0x0 JUMPDEST DUP4 DUP2 LT ISZERO PUSH2 0x291 JUMPI DUP2 MLOAD PUSH2 0x278 DUP8 DUP3 PUSH2 0x21D JUMP JUMPDEST SWAP7 POP PUSH2 0x283 DUP4 PUSH2 0x235 JUMP JUMPDEST SWAP3 POP POP PUSH1 0x1 DUP2 ADD SWAP1 POP PUSH2 0x264 JUMP JUMPDEST POP POP POP POP POP POP JUMP JUMPDEST PUSH1 0x0 PUSH1 0xA0 DUP3 ADD SWAP1 POP PUSH2 0x2AE PUSH1 0x0 DUP4 ADD DUP7 PUSH2 0x1C4 JUMP JUMPDEST PUSH2 0x2BB PUSH1 0x20 DUP4 ADD DUP6 PUSH2 0x1DF JUMP JUMPDEST PUSH2 0x2C8 PUSH1 0x40 DUP4 ADD DUP5 PUSH2 0x242 JUMP JUMPDEST SWAP5 SWAP4 POP POP POP POP JUMP INVALID LOG2 PUSH5 0x6970667358 0x22 SLT KECCAK256 0xE3 PUSH9 0x3849159F4F9F2DC863 DIV 0xB3 0xD3 CALL 0xE7 0xD1 DUP13 NUMBER PUSH24 0xDD2D118F516DDE919A4A413064736F6C6343000811003300 "
		},
		"gasEstimates": {
			"creation": {
				"codeDepositCost": "154800",
				"executionCost": "202",
				"totalCost": "155002"
			},
			"external": {
				"readReturn()": "infinite",
				"returnMultiple()": "infinite",
				"returnNamed()": "infinite",
				"returnNamed2()": "infinite"
			}
		},
		"methodIdentifiers": {
			"readReturn()": "6f590330",
			"returnMultiple()": "e61e4008",
			"returnNamed()": "3dece511",
			"returnNamed2()": "8552dc08"
		}
	},
	"abi": [
		{
			"inputs": [],
			"name": "readReturn",
			"outputs": [],
			"stateMutability": "pure",
			"type": "function"
		},
		{
			"inputs": [],
			"name": "returnMultiple",
			"outputs": [
				{
					"internalType": "uint256",
					"name": "",
					"type": "uint256"
				},
				{
					"internalType": "bool",
					"name": "",
					"type": "bool"
				},
				{
					"internalType": "uint256[3]",
					"name": "",
					"type": "uint256[3]"
				}
			],
			"stateMutability": "pure",
			"type": "function"
		},
		{
			"inputs": [],
			"name": "returnNamed",
			"outputs": [
				{
					"internalType": "uint256",
					"name": "_number",
					"type": "uint256"
				},
				{
					"internalType": "bool",
					"name": "_bool",
					"type": "bool"
				},
				{
					"internalType": "uint256[3]",
					"name": "_array",
					"type": "uint256[3]"
				}
			],
			"stateMutability": "pure",
			"type": "function"
		},
		{
			"inputs": [],
			"name": "returnNamed2",
			"outputs": [
				{
					"internalType": "uint256",
					"name": "_number",
					"type": "uint256"
				},
				{
					"internalType": "bool",
					"name": "_bool",
					"type": "bool"
				},
				{
					"internalType": "uint256[3]",
					"name": "_array",
					"type": "uint256[3]"
				}
			],
			"stateMutability": "pure",
			"type": "function"
		}
	]
}